{
  "contractName": "Pools",
  "abi": [
    {
      "constant": true,
      "inputs": [],
      "name": "owner",
      "outputs": [
        {
          "name": "",
          "type": "address"
        }
      ],
      "payable": false,
      "stateMutability": "view",
      "type": "function"
    },
    {
      "constant": true,
      "inputs": [
        {
          "name": "",
          "type": "address"
        },
        {
          "name": "",
          "type": "uint256"
        }
      ],
      "name": "owners",
      "outputs": [
        {
          "name": "",
          "type": "address"
        }
      ],
      "payable": false,
      "stateMutability": "view",
      "type": "function"
    },
    {
      "constant": false,
      "inputs": [
        {
          "name": "newOwner",
          "type": "address"
        }
      ],
      "name": "transferOwnership",
      "outputs": [],
      "payable": false,
      "stateMutability": "nonpayable",
      "type": "function"
    },
    {
      "inputs": [],
      "payable": false,
      "stateMutability": "nonpayable",
      "type": "constructor"
    },
    {
      "anonymous": false,
      "inputs": [
        {
          "indexed": true,
          "name": "pool",
          "type": "address"
        },
        {
          "indexed": true,
          "name": "owner",
          "type": "address"
        }
      ],
      "name": "poolCreated",
      "type": "event"
    },
    {
      "anonymous": false,
      "inputs": [
        {
          "indexed": true,
          "name": "previousOwner",
          "type": "address"
        },
        {
          "indexed": true,
          "name": "newOwner",
          "type": "address"
        }
      ],
      "name": "OwnershipTransferred",
      "type": "event"
    },
    {
      "constant": false,
      "inputs": [
        {
          "name": "_closeSeconds",
          "type": "uint256"
        },
        {
          "name": "_minPerUser",
          "type": "uint256"
        },
        {
          "name": "_maxPerUser",
          "type": "uint256"
        },
        {
          "name": "_maxPool",
          "type": "uint256"
        },
        {
          "name": "_autoClaim",
          "type": "bool"
        },
        {
          "name": "_dest",
          "type": "address"
        },
        {
          "name": "_ownerFeesPct",
          "type": "uint8"
        }
      ],
      "name": "deployPool",
      "outputs": [
        {
          "name": "",
          "type": "address"
        }
      ],
      "payable": false,
      "stateMutability": "nonpayable",
      "type": "function"
    },
    {
      "constant": true,
      "inputs": [
        {
          "name": "addr",
          "type": "address"
        }
      ],
      "name": "getPools",
      "outputs": [
        {
          "name": "",
          "type": "address[]"
        }
      ],
      "payable": false,
      "stateMutability": "view",
      "type": "function"
    }
  ],
  "bytecode": "0x608060405234801561001057600080fd5b50336000806101000a81548173ffffffffffffffffffffffffffffffffffffffff021916908373ffffffffffffffffffffffffffffffffffffffff1602179055506128e5806100606000396000f30060806040526004361061006d576000357c0100000000000000000000000000000000000000000000000000000000900463ffffffff1680632eb1eb31146100725780635c39f467146101365780638da5cb5b146101ce5780639b3e278714610225578063f2fde38b146102b2575b600080fd5b34801561007e57600080fd5b506100f460048036038101908080359060200190929190803590602001909291908035906020019092919080359060200190929190803515159060200190929190803573ffffffffffffffffffffffffffffffffffffffff169060200190929190803560ff1690602001909291905050506102f5565b604051808273ffffffffffffffffffffffffffffffffffffffff1673ffffffffffffffffffffffffffffffffffffffff16815260200191505060405180910390f35b34801561014257600080fd5b50610177600480360381019080803573ffffffffffffffffffffffffffffffffffffffff1690602001909291905050506104cf565b6040518080602001828103825283818151815260200191508051906020019060200280838360005b838110156101ba57808201518184015260208101905061019f565b505050509050019250505060405180910390f35b3480156101da57600080fd5b506101e361059c565b604051808273ffffffffffffffffffffffffffffffffffffffff1673ffffffffffffffffffffffffffffffffffffffff16815260200191505060405180910390f35b34801561023157600080fd5b50610270600480360381019080803573ffffffffffffffffffffffffffffffffffffffff169060200190929190803590602001909291905050506105c1565b604051808273ffffffffffffffffffffffffffffffffffffffff1673ffffffffffffffffffffffffffffffffffffffff16815260200191505060405180910390f35b3480156102be57600080fd5b506102f3600480360381019080803573ffffffffffffffffffffffffffffffffffffffff16906020019092919050505061060e565b005b6000806103e88360ff161115151561030c57600080fd5b60008911151561031b57600080fd5b60008611151561032a57600080fd5b88888888888888610339610763565b80888152602001878152602001868152602001858152602001841515151581526020018373ffffffffffffffffffffffffffffffffffffffff1673ffffffffffffffffffffffffffffffffffffffff1681526020018260ff1661ffff168152602001975050505050505050604051809103906000f0801580156103c0573d6000803e3d6000fd5b509050600160003373ffffffffffffffffffffffffffffffffffffffff1673ffffffffffffffffffffffffffffffffffffffff1681526020019081526020016000208190806001815401808255809150509060018203906000526020600020016000909192909190916101000a81548173ffffffffffffffffffffffffffffffffffffffff021916908373ffffffffffffffffffffffffffffffffffffffff160217905550503373ffffffffffffffffffffffffffffffffffffffff168173ffffffffffffffffffffffffffffffffffffffff167f3dcece824fa0ae4b6319d0e025aeebc5e1306a8029066ece58d8eaf9e229b57e60405160405180910390a380915050979650505050505050565b6060600160008373ffffffffffffffffffffffffffffffffffffffff1673ffffffffffffffffffffffffffffffffffffffff16815260200190815260200160002080548060200260200160405190810160405280929190818152602001828054801561059057602002820191906000526020600020905b8160009054906101000a900473ffffffffffffffffffffffffffffffffffffffff1673ffffffffffffffffffffffffffffffffffffffff1681526020019060010190808311610546575b50505050509050919050565b6000809054906101000a900473ffffffffffffffffffffffffffffffffffffffff1681565b6001602052816000526040600020818154811015156105dc57fe5b906000526020600020016000915091509054906101000a900473ffffffffffffffffffffffffffffffffffffffff1681565b6000809054906101000a900473ffffffffffffffffffffffffffffffffffffffff1673ffffffffffffffffffffffffffffffffffffffff163373ffffffffffffffffffffffffffffffffffffffff1614151561066957600080fd5b600073ffffffffffffffffffffffffffffffffffffffff168173ffffffffffffffffffffffffffffffffffffffff16141515156106a557600080fd5b8073ffffffffffffffffffffffffffffffffffffffff166000809054906101000a900473ffffffffffffffffffffffffffffffffffffffff1673ffffffffffffffffffffffffffffffffffffffff167f8be0079c531659141344cd1fd0a4f28419497f9722a3daafe3b4186f6b6457e060405160405180910390a3806000806101000a81548173ffffffffffffffffffffffffffffffffffffffff021916908373ffffffffffffffffffffffffffffffffffffffff16021790555050565b60405161214680610774833901905600608060405260008060146101000a81548160ff0219169083600381111561002257fe5b0217905550600060095534801561003857600080fd5b5060405160e08061214683398101806040528101908080519060200190929190805190602001909291908051906020019092919080519060200190929190805190602001909291908051906020019092919080519060200190929190505050336000806101000a81548173ffffffffffffffffffffffffffffffffffffffff021916908373ffffffffffffffffffffffffffffffffffffffff1602179055506103e88161ffff16111515156100ec57600080fd5b6000871115156100fb57600080fd5b6009548411151561010b57600080fd5b42600281905550326000806101000a81548173ffffffffffffffffffffffffffffffffffffffff021916908373ffffffffffffffffffffffffffffffffffffffff16021790555033600160006101000a81548173ffffffffffffffffffffffffffffffffffffffff021916908373ffffffffffffffffffffffffffffffffffffffff16021790555081600460006101000a81548173ffffffffffffffffffffffffffffffffffffffff021916908373ffffffffffffffffffffffffffffffffffffffff16021790555080600c60006101000a81548161ffff021916908361ffff16021790555085600581905550846006819055508360078190555060018702420160038190555082600a60006101000a81548160ff02191690831515021790555050505050505050611f04806102426000396000f300608060405260043610610149576000357c0100000000000000000000000000000000000000000000000000000000900463ffffffff168063026b1d5f1461019b57806306d586bb146102285780631e83409a146102535780632e1a7d4d146102ae5780633c3c9c23146102f3578063464c76aa1461031e57806347e7ef24146103955780635f28b383146103d557806366805de514610400578063673ba2b51461041757806379ec10451461047257806384b366dc146104a5578063862b8632146104fc5780638da5cb5b146105535780639593c06c146105aa578063a985408714610601578063c19d93fb1461062c578063c70db32314610665578063cb7e307814610694578063e39ff19f146106bf578063e3d670d71461071a578063e486033914610771578063eae4c19f146107cc578063f2fde38b146107f7578063fb98f68c1461083a575b4260035411151561015957600080fd5b600080600381111561016757fe5b600060149054906101000a900460ff16600381111561018257fe5b14151561018e57600080fd5b6101983334610895565b50005b3480156101a757600080fd5b506101b06109e2565b60405180888152602001878152602001868152602001858152602001841515151581526020018373ffffffffffffffffffffffffffffffffffffffff1673ffffffffffffffffffffffffffffffffffffffff1681526020018261ffff1661ffff16815260200197505050505050505060405180910390f35b34801561023457600080fd5b5061023d610a54565b6040518082815260200191505060405180910390f35b34801561025f57600080fd5b50610294600480360381019080803573ffffffffffffffffffffffffffffffffffffffff169060200190929190505050610a5a565b604051808215151515815260200191505060405180910390f35b3480156102ba57600080fd5b506102d9600480360381019080803590602001909291905050506110cc565b604051808215151515815260200191505060405180910390f35b3480156102ff57600080fd5b5061030861127d565b6040518082815260200191505060405180910390f35b34801561032a57600080fd5b5061037f600480360381019080803573ffffffffffffffffffffffffffffffffffffffff169060200190929190803573ffffffffffffffffffffffffffffffffffffffff169060200190929190505050611283565b6040518082815260200191505060405180910390f35b6103d3600480360381019080803573ffffffffffffffffffffffffffffffffffffffff16906020019092919080359060200190929190505050610895565b005b3480156103e157600080fd5b506103ea6112a8565b6040518082815260200191505060405180910390f35b34801561040c57600080fd5b506104156112ae565b005b34801561042357600080fd5b50610458600480360381019080803573ffffffffffffffffffffffffffffffffffffffff1690602001909291905050506113a8565b604051808215151515815260200191505060405180910390f35b34801561047e57600080fd5b5061048761151d565b604051808261ffff1661ffff16815260200191505060405180910390f35b3480156104b157600080fd5b506104ba611531565b604051808273ffffffffffffffffffffffffffffffffffffffff1673ffffffffffffffffffffffffffffffffffffffff16815260200191505060405180910390f35b34801561050857600080fd5b5061053d600480360381019080803573ffffffffffffffffffffffffffffffffffffffff169060200190929190505050611557565b6040518082815260200191505060405180910390f35b34801561055f57600080fd5b5061056861156f565b604051808273ffffffffffffffffffffffffffffffffffffffff1673ffffffffffffffffffffffffffffffffffffffff16815260200191505060405180910390f35b3480156105b657600080fd5b506105ff60048036038101908080359060200190929190803590602001909291908035906020019092919080359060200190929190803515159060200190929190505050611594565b005b34801561060d57600080fd5b50610616611696565b6040518082815260200191505060405180910390f35b34801561063857600080fd5b5061064161169c565b6040518082600381111561065157fe5b60ff16815260200191505060405180910390f35b34801561067157600080fd5b5061067a6116af565b604051808215151515815260200191505060405180910390f35b3480156106a057600080fd5b506106a96116c2565b6040518082815260200191505060405180910390f35b3480156106cb57600080fd5b50610700600480360381019080803573ffffffffffffffffffffffffffffffffffffffff1690602001909291905050506116c8565b604051808215151515815260200191505060405180910390f35b34801561072657600080fd5b5061075b600480360381019080803573ffffffffffffffffffffffffffffffffffffffff169060200190929190505050611a9a565b6040518082815260200191505060405180910390f35b34801561077d57600080fd5b506107b2600480360381019080803573ffffffffffffffffffffffffffffffffffffffff169060200190929190505050611ab2565b604051808215151515815260200191505060405180910390f35b3480156107d857600080fd5b506107e1611ad2565b6040518082815260200191505060405180910390f35b34801561080357600080fd5b50610838600480360381019080803573ffffffffffffffffffffffffffffffffffffffff169060200190929190505050611ad8565b005b34801561084657600080fd5b5061087b600480360381019080803573ffffffffffffffffffffffffffffffffffffffff169060200190929190505050611c2d565b604051808215151515815260200191505060405180910390f35b600080426003541115156108a857600080fd5b82600860008673ffffffffffffffffffffffffffffffffffffffff1673ffffffffffffffffffffffffffffffffffffffff1681526020019081526020016000205401915082600954019050816006541115151561090457600080fd5b600554831015151561091557600080fd5b600754811115151561092657600080fd5b81600860008673ffffffffffffffffffffffffffffffffffffffff1673ffffffffffffffffffffffffffffffffffffffff16815260200190815260200160002081905550806009819055507f23009393721a27d6803b599bf9f0747edfd97c6fe82522bedeb95c05150c9b408484604051808373ffffffffffffffffffffffffffffffffffffffff1673ffffffffffffffffffffffffffffffffffffffff1681526020018281526020019250505060405180910390a150505050565b6000806000806000806000600354600554600654600754600a60009054906101000a900460ff16600460009054906101000a900473ffffffffffffffffffffffffffffffffffffffff16600c60009054906101000a900461ffff16965096509650965096509650965090919293949596565b60065481565b60008060008042600354101515610a7057600080fd5b8460008173ffffffffffffffffffffffffffffffffffffffff166370a08231306040518263ffffffff167c0100000000000000000000000000000000000000000000000000000000028152600401808273ffffffffffffffffffffffffffffffffffffffff1673ffffffffffffffffffffffffffffffffffffffff168152602001915050602060405180830381600087803b158015610b0e57600080fd5b505af1158015610b22573d6000803e3d6000fd5b505050506040513d6020811015610b3857600080fd5b8101908080519060200190929190505050111515610b5557600080fd5b6000600860003373ffffffffffffffffffffffffffffffffffffffff1673ffffffffffffffffffffffffffffffffffffffff16815260200190815260200160002054111515610ba357600080fd5b60001515600a60009054906101000a900460ff1615151415610c1857600b60008773ffffffffffffffffffffffffffffffffffffffff1673ffffffffffffffffffffffffffffffffffffffff16815260200190815260200160002060009054906101000a900460ff161515610c1757600080fd5b5b600f60008773ffffffffffffffffffffffffffffffffffffffff1673ffffffffffffffffffffffffffffffffffffffff168152602001908152602001600020548673ffffffffffffffffffffffffffffffffffffffff166370a08231306040518263ffffffff167c0100000000000000000000000000000000000000000000000000000000028152600401808273ffffffffffffffffffffffffffffffffffffffff1673ffffffffffffffffffffffffffffffffffffffff168152602001915050602060405180830381600087803b158015610cf357600080fd5b505af1158015610d07573d6000803e3d6000fd5b505050506040513d6020811015610d1d57600080fd5b8101908080519060200190929190505050019350600954600860003373ffffffffffffffffffffffffffffffffffffffff1673ffffffffffffffffffffffffffffffffffffffff16815260200190815260200160002054811515610d7d57fe5b0484029250600d60003373ffffffffffffffffffffffffffffffffffffffff1673ffffffffffffffffffffffffffffffffffffffff16815260200190815260200160002060008773ffffffffffffffffffffffffffffffffffffffff1673ffffffffffffffffffffffffffffffffffffffff1681526020019081526020016000205483039150600082111515610e1257600080fd5b81600f60008873ffffffffffffffffffffffffffffffffffffffff1673ffffffffffffffffffffffffffffffffffffffff1681526020019081526020016000206000828254019250508190555081600d60003373ffffffffffffffffffffffffffffffffffffffff1673ffffffffffffffffffffffffffffffffffffffff16815260200190815260200160002060008873ffffffffffffffffffffffffffffffffffffffff1673ffffffffffffffffffffffffffffffffffffffff168152602001908152602001600020600082825401925050819055506003600060146101000a81548160ff02191690836003811115610f0857fe5b02179055508573ffffffffffffffffffffffffffffffffffffffff166323b872dd3033856040518463ffffffff167c0100000000000000000000000000000000000000000000000000000000028152600401808473ffffffffffffffffffffffffffffffffffffffff1673ffffffffffffffffffffffffffffffffffffffff1681526020018373ffffffffffffffffffffffffffffffffffffffff1673ffffffffffffffffffffffffffffffffffffffff1681526020018281526020019350505050602060405180830381600087803b158015610fe457600080fd5b505af1158015610ff8573d6000803e3d6000fd5b505050506040513d602081101561100e57600080fd5b8101908080519060200190929190505050507f1ce4a6068a020847732bce06b833f1b0ef42e08611a45ca145fa2e5916f1db8a338784604051808473ffffffffffffffffffffffffffffffffffffffff1673ffffffffffffffffffffffffffffffffffffffff1681526020018373ffffffffffffffffffffffffffffffffffffffff1673ffffffffffffffffffffffffffffffffffffffff168152602001828152602001935050505060405180910390a16001945050505050919050565b600060038060038111156110dc57fe5b600060149054906101000a900460ff1660038111156110f757fe5b1415151561110457600080fd5b6000600860003373ffffffffffffffffffffffffffffffffffffffff1673ffffffffffffffffffffffffffffffffffffffff1681526020019081526020016000205411151561115257600080fd5b823073ffffffffffffffffffffffffffffffffffffffff16311015151561117857600080fd5b82600860003373ffffffffffffffffffffffffffffffffffffffff1673ffffffffffffffffffffffffffffffffffffffff168152602001908152602001600020600082825403925050819055503373ffffffffffffffffffffffffffffffffffffffff166108fc849081150290604051600060405180830381858888f1935050505015801561120b573d6000803e3d6000fd5b507f6202b9210eddfec514dee7725e74c49be931243a5fda51c01552a5fb07e893dd3384604051808373ffffffffffffffffffffffffffffffffffffffff1673ffffffffffffffffffffffffffffffffffffffff1681526020018281526020019250505060405180910390a150919050565b60095481565b600d602052816000526040600020602052806000526040600020600091509150505481565b60055481565b6000809054906101000a900473ffffffffffffffffffffffffffffffffffffffff1673ffffffffffffffffffffffffffffffffffffffff163373ffffffffffffffffffffffffffffffffffffffff1614151561130957600080fd5b4260035411151561131957600080fd5b600080600381111561132757fe5b600060149054906101000a900460ff16600381111561134257fe5b14151561134e57600080fd5b426003819055506001600060146101000a81548160ff0219169083600381111561137457fe5b02179055507fc7fd8db71ff4df7d04073851d967c2fc797f4b5a885c27225e9cb304cde1b07d60405160405180910390a150565b60008060009054906101000a900473ffffffffffffffffffffffffffffffffffffffff1673ffffffffffffffffffffffffffffffffffffffff163373ffffffffffffffffffffffffffffffffffffffff1614151561140557600080fd5b60001515600a60009054906101000a900460ff16151514151561142757600080fd5b4260035410151561143757600080fd5b60001515600a60009054906101000a900460ff16151514151561145957600080fd5b6000600b60008473ffffffffffffffffffffffffffffffffffffffff1673ffffffffffffffffffffffffffffffffffffffff16815260200190815260200160002060006101000a81548160ff0219169083151502179055507fb2e351d7e80c490e5dc2564259242d931e555d50ebc07bfa81a4562cc1706c2582604051808273ffffffffffffffffffffffffffffffffffffffff1673ffffffffffffffffffffffffffffffffffffffff16815260200191505060405180910390a160019050919050565b600c60009054906101000a900461ffff1681565b600460009054906101000a900473ffffffffffffffffffffffffffffffffffffffff1681565b600f6020528060005260406000206000915090505481565b6000809054906101000a900473ffffffffffffffffffffffffffffffffffffffff1681565b426003541115156115a457600080fd5b60008060038111156115b257fe5b600060149054906101000a900460ff1660038111156115cd57fe5b1415156115d957600080fd5b6000861115156115e857600080fd5b600954831115156115f857600080fd5b84600581905550836006819055508260078190555060018602420160038190555081600a60006101000a81548160ff0219169083151502179055507f0542933e23099aca99ccb380feb75e4d4e7c7abf91efbbf88b22f7c6b5e54d60868686868660405180868152602001858152602001848152602001838152602001821515151581526020019550505050505060405180910390a1505050505050565b60035481565b600060149054906101000a900460ff1681565b600a60009054906101000a900460ff1681565b60075481565b6000806000806000809054906101000a900473ffffffffffffffffffffffffffffffffffffffff1673ffffffffffffffffffffffffffffffffffffffff163373ffffffffffffffffffffffffffffffffffffffff1614151561172957600080fd5b4260035410151561173957600080fd5b60003073ffffffffffffffffffffffffffffffffffffffff163111151561175f57600080fd5b600073ffffffffffffffffffffffffffffffffffffffff16600460009054906101000a900473ffffffffffffffffffffffffffffffffffffffff1673ffffffffffffffffffffffffffffffffffffffff16141515611814578473ffffffffffffffffffffffffffffffffffffffff16600460009054906101000a900473ffffffffffffffffffffffffffffffffffffffff1673ffffffffffffffffffffffffffffffffffffffff1614151561181357600080fd5b5b6002600381111561182157fe5b600060149054906101000a900460ff16600381111561183c57fe5b14151561198e576118596103e86005611e8a90919063ffffffff16565b925061187083600954611ea090919063ffffffff16565b9150600160009054906101000a900473ffffffffffffffffffffffffffffffffffffffff1673ffffffffffffffffffffffffffffffffffffffff166108fc839081150290604051600060405180830381858888f193505050501580156118da573d6000803e3d6000fd5b506000600c60009054906101000a900461ffff1661ffff16111561198d576103e8600c60009054906101000a900461ffff1661ffff1681151561191957fe5b0461ffff166009540290506000809054906101000a900473ffffffffffffffffffffffffffffffffffffffff1673ffffffffffffffffffffffffffffffffffffffff166108fc829081150290604051600060405180830381858888f1935050505015801561198b573d6000803e3d6000fd5b505b5b6002600060146101000a81548160ff021916908360038111156119ad57fe5b02179055508473ffffffffffffffffffffffffffffffffffffffff166108fc3073ffffffffffffffffffffffffffffffffffffffff16319081150290604051600060405180830381858888f19350505050158015611a0f573d6000803e3d6000fd5b507facfada45e09e5bb4c2c456febe99efe38be8bfc67a25cccdbb4c93ec56f661a5853073ffffffffffffffffffffffffffffffffffffffff1631604051808373ffffffffffffffffffffffffffffffffffffffff1673ffffffffffffffffffffffffffffffffffffffff1681526020018281526020019250505060405180910390a1505050919050565b60086020528060005260406000206000915090505481565b600b6020528060005260406000206000915054906101000a900460ff1681565b60025481565b6000809054906101000a900473ffffffffffffffffffffffffffffffffffffffff1673ffffffffffffffffffffffffffffffffffffffff163373ffffffffffffffffffffffffffffffffffffffff16141515611b3357600080fd5b600073ffffffffffffffffffffffffffffffffffffffff168173ffffffffffffffffffffffffffffffffffffffff1614151515611b6f57600080fd5b8073ffffffffffffffffffffffffffffffffffffffff166000809054906101000a900473ffffffffffffffffffffffffffffffffffffffff1673ffffffffffffffffffffffffffffffffffffffff167f8be0079c531659141344cd1fd0a4f28419497f9722a3daafe3b4186f6b6457e060405160405180910390a3806000806101000a81548173ffffffffffffffffffffffffffffffffffffffff021916908373ffffffffffffffffffffffffffffffffffffffff16021790555050565b60008060009054906101000a900473ffffffffffffffffffffffffffffffffffffffff1673ffffffffffffffffffffffffffffffffffffffff163373ffffffffffffffffffffffffffffffffffffffff16141515611c8a57600080fd5b8160008173ffffffffffffffffffffffffffffffffffffffff166370a08231306040518263ffffffff167c0100000000000000000000000000000000000000000000000000000000028152600401808273ffffffffffffffffffffffffffffffffffffffff1673ffffffffffffffffffffffffffffffffffffffff168152602001915050602060405180830381600087803b158015611d2857600080fd5b505af1158015611d3c573d6000803e3d6000fd5b505050506040513d6020811015611d5257600080fd5b8101908080519060200190929190505050111515611d6f57600080fd5b60001515600a60009054906101000a900460ff161515141515611d9157600080fd5b42600354101515611da157600080fd5b6003600060146101000a81548160ff02191690836003811115611dc057fe5b02179055506001600b60008573ffffffffffffffffffffffffffffffffffffffff1673ffffffffffffffffffffffffffffffffffffffff16815260200190815260200160002060006101000a81548160ff0219169083151502179055507fd578f84e7496243d3c9ef54305f65812ae30c4c5b66c630cb436ae1f719f3aeb83604051808273ffffffffffffffffffffffffffffffffffffffff1673ffffffffffffffffffffffffffffffffffffffff16815260200191505060405180910390a16001915050919050565b60008183811515611e9757fe5b04905092915050565b600080831415611eb35760009050611ed2565b8183029050818382811515611ec457fe5b04141515611ece57fe5b8090505b929150505600a165627a7a72305820c23d9ecf018c91088122c9e60a7638f4aac66134cffc68d865e706d903bcc2450029a165627a7a7230582002c69b1be0abb1723908ea194a9da4159e44ef616ab9619bbcdce53c7eb6b8160029",
  "source": "pragma solidity ^0.4.17;\n\nimport 'openzeppelin-solidity/contracts/ownership/Ownable.sol';\nimport 'contracts/Pool.sol';\n\ncontract Pools is Ownable {\n\n  mapping (address => address[]) public owners;\n\n  event poolCreated(address indexed pool, address indexed owner);\n\n\tfunction Pools() public Ownable() {\n\n\t}\n\n\t// function deployPool() {\n\tfunction deployPool(uint256 _closeSeconds, uint256 _minPerUser, uint256 _maxPerUser, uint256 _maxPool, bool _autoClaim, address _dest, uint8 _ownerFeesPct) public returns (address) {\n\t\trequire(_ownerFeesPct <= 1000);\n\t\trequire(_closeSeconds > 0);\n  \trequire(_maxPool > 0);\n\t\t// address newPool = new Pool( 3600, 1, 10, 100, true, address(0), 5);\n\n\t\taddress newPool = new Pool( _closeSeconds, _minPerUser, _maxPerUser, _maxPool, _autoClaim, _dest, _ownerFeesPct);\n\t\towners[msg.sender].push(newPool);\n\t\temit poolCreated(newPool, msg.sender);\n\t\treturn newPool;\n\t}\n\n\tfunction getPools(address addr) public view returns(address[]) {\n\t\treturn owners[addr];\n\t}\n\n\t// Need to do a withdraw function. \n\t// Later on better to have a smart contract just for fees\n}",
  "sourcePath": "/Users/fjalcaraz/Desktop/SBC/project/pooled/express/contracts/Pools.sol",
  "compiler": {
    "name": "solc",
    "version": "0.4.23+commit.124ca40d.Emscripten.clang"
  },
  "schemaVersion": "2.0.0",
  "updatedAt": "2018-06-06T14:13:47.228Z"
}