{
  "contractName": "Pool",
  "abi": [
    {
      "constant": true,
      "inputs": [],
      "name": "maxPerUser",
      "outputs": [
        {
          "name": "",
          "type": "uint256"
        }
      ],
      "payable": false,
      "stateMutability": "view",
      "type": "function"
    },
    {
      "constant": true,
      "inputs": [],
      "name": "totalEth",
      "outputs": [
        {
          "name": "",
          "type": "uint256"
        }
      ],
      "payable": false,
      "stateMutability": "view",
      "type": "function"
    },
    {
      "constant": true,
      "inputs": [
        {
          "name": "",
          "type": "address"
        },
        {
          "name": "",
          "type": "address"
        }
      ],
      "name": "userTotalTokenClaimed",
      "outputs": [
        {
          "name": "",
          "type": "uint256"
        }
      ],
      "payable": false,
      "stateMutability": "view",
      "type": "function"
    },
    {
      "constant": true,
      "inputs": [],
      "name": "minPerUser",
      "outputs": [
        {
          "name": "",
          "type": "uint256"
        }
      ],
      "payable": false,
      "stateMutability": "view",
      "type": "function"
    },
    {
      "constant": true,
      "inputs": [],
      "name": "ownerFeesPct",
      "outputs": [
        {
          "name": "",
          "type": "uint16"
        }
      ],
      "payable": false,
      "stateMutability": "view",
      "type": "function"
    },
    {
      "constant": true,
      "inputs": [],
      "name": "dest",
      "outputs": [
        {
          "name": "",
          "type": "address"
        }
      ],
      "payable": false,
      "stateMutability": "view",
      "type": "function"
    },
    {
      "constant": true,
      "inputs": [
        {
          "name": "",
          "type": "address"
        }
      ],
      "name": "poolTotalTokenClaimed",
      "outputs": [
        {
          "name": "",
          "type": "uint256"
        }
      ],
      "payable": false,
      "stateMutability": "view",
      "type": "function"
    },
    {
      "constant": true,
      "inputs": [],
      "name": "owner",
      "outputs": [
        {
          "name": "",
          "type": "address"
        }
      ],
      "payable": false,
      "stateMutability": "view",
      "type": "function"
    },
    {
      "constant": true,
      "inputs": [],
      "name": "closeAt",
      "outputs": [
        {
          "name": "",
          "type": "uint256"
        }
      ],
      "payable": false,
      "stateMutability": "view",
      "type": "function"
    },
    {
      "constant": true,
      "inputs": [],
      "name": "state",
      "outputs": [
        {
          "name": "",
          "type": "uint8"
        }
      ],
      "payable": false,
      "stateMutability": "view",
      "type": "function"
    },
    {
      "constant": true,
      "inputs": [],
      "name": "autoClaim",
      "outputs": [
        {
          "name": "",
          "type": "bool"
        }
      ],
      "payable": false,
      "stateMutability": "view",
      "type": "function"
    },
    {
      "constant": true,
      "inputs": [],
      "name": "maxPool",
      "outputs": [
        {
          "name": "",
          "type": "uint256"
        }
      ],
      "payable": false,
      "stateMutability": "view",
      "type": "function"
    },
    {
      "constant": true,
      "inputs": [
        {
          "name": "",
          "type": "address"
        }
      ],
      "name": "balance",
      "outputs": [
        {
          "name": "",
          "type": "uint256"
        }
      ],
      "payable": false,
      "stateMutability": "view",
      "type": "function"
    },
    {
      "constant": true,
      "inputs": [
        {
          "name": "",
          "type": "address"
        }
      ],
      "name": "tokens",
      "outputs": [
        {
          "name": "",
          "type": "bool"
        }
      ],
      "payable": false,
      "stateMutability": "view",
      "type": "function"
    },
    {
      "constant": true,
      "inputs": [],
      "name": "deployedAt",
      "outputs": [
        {
          "name": "",
          "type": "uint256"
        }
      ],
      "payable": false,
      "stateMutability": "view",
      "type": "function"
    },
    {
      "constant": false,
      "inputs": [
        {
          "name": "newOwner",
          "type": "address"
        }
      ],
      "name": "transferOwnership",
      "outputs": [],
      "payable": false,
      "stateMutability": "nonpayable",
      "type": "function"
    },
    {
      "inputs": [
        {
          "name": "_closeSeconds",
          "type": "uint256"
        },
        {
          "name": "_minPerUser",
          "type": "uint256"
        },
        {
          "name": "_maxPerUser",
          "type": "uint256"
        },
        {
          "name": "_maxPool",
          "type": "uint256"
        },
        {
          "name": "_autoClaim",
          "type": "bool"
        },
        {
          "name": "_dest",
          "type": "address"
        },
        {
          "name": "_ownerFeesPct",
          "type": "uint8"
        }
      ],
      "payable": false,
      "stateMutability": "nonpayable",
      "type": "constructor"
    },
    {
      "payable": true,
      "stateMutability": "payable",
      "type": "fallback"
    },
    {
      "anonymous": false,
      "inputs": [
        {
          "indexed": false,
          "name": "sender",
          "type": "address"
        },
        {
          "indexed": false,
          "name": "amount",
          "type": "uint256"
        }
      ],
      "name": "logDeposit",
      "type": "event"
    },
    {
      "anonymous": false,
      "inputs": [
        {
          "indexed": false,
          "name": "receiver",
          "type": "address"
        },
        {
          "indexed": false,
          "name": "amount",
          "type": "uint256"
        }
      ],
      "name": "logWithdrawal",
      "type": "event"
    },
    {
      "anonymous": false,
      "inputs": [],
      "name": "logClosePool",
      "type": "event"
    },
    {
      "anonymous": false,
      "inputs": [],
      "name": "logReOpenPool",
      "type": "event"
    },
    {
      "anonymous": false,
      "inputs": [
        {
          "indexed": false,
          "name": "to",
          "type": "address"
        },
        {
          "indexed": false,
          "name": "amount",
          "type": "uint256"
        }
      ],
      "name": "logTransfer",
      "type": "event"
    },
    {
      "anonymous": false,
      "inputs": [
        {
          "indexed": false,
          "name": "token",
          "type": "address"
        }
      ],
      "name": "logAuthorize",
      "type": "event"
    },
    {
      "anonymous": false,
      "inputs": [
        {
          "indexed": false,
          "name": "token",
          "type": "address"
        }
      ],
      "name": "logUnAuthorize",
      "type": "event"
    },
    {
      "anonymous": false,
      "inputs": [
        {
          "indexed": false,
          "name": "from",
          "type": "address"
        },
        {
          "indexed": false,
          "name": "token",
          "type": "address"
        },
        {
          "indexed": false,
          "name": "amount",
          "type": "uint256"
        }
      ],
      "name": "logClaim",
      "type": "event"
    },
    {
      "anonymous": false,
      "inputs": [
        {
          "indexed": false,
          "name": "_closeSeconds",
          "type": "uint256"
        },
        {
          "indexed": false,
          "name": "_minPerUser",
          "type": "uint256"
        },
        {
          "indexed": false,
          "name": "_maxPerUser",
          "type": "uint256"
        },
        {
          "indexed": false,
          "name": "_maxPool",
          "type": "uint256"
        },
        {
          "indexed": false,
          "name": "_autoClaim",
          "type": "bool"
        }
      ],
      "name": "logUpdatePool",
      "type": "event"
    },
    {
      "anonymous": false,
      "inputs": [
        {
          "indexed": true,
          "name": "previousOwner",
          "type": "address"
        },
        {
          "indexed": true,
          "name": "newOwner",
          "type": "address"
        }
      ],
      "name": "OwnershipTransferred",
      "type": "event"
    },
    {
      "constant": false,
      "inputs": [
        {
          "name": "_closeSeconds",
          "type": "uint256"
        },
        {
          "name": "_minPerUser",
          "type": "uint256"
        },
        {
          "name": "_maxPerUser",
          "type": "uint256"
        },
        {
          "name": "_maxPool",
          "type": "uint256"
        },
        {
          "name": "_autoClaim",
          "type": "bool"
        }
      ],
      "name": "updatePool",
      "outputs": [],
      "payable": false,
      "stateMutability": "nonpayable",
      "type": "function"
    },
    {
      "constant": false,
      "inputs": [
        {
          "name": "user",
          "type": "address"
        },
        {
          "name": "value",
          "type": "uint256"
        }
      ],
      "name": "deposit",
      "outputs": [],
      "payable": true,
      "stateMutability": "payable",
      "type": "function"
    },
    {
      "constant": false,
      "inputs": [],
      "name": "closePool",
      "outputs": [],
      "payable": false,
      "stateMutability": "nonpayable",
      "type": "function"
    },
    {
      "constant": false,
      "inputs": [
        {
          "name": "value",
          "type": "uint256"
        }
      ],
      "name": "withdraw",
      "outputs": [
        {
          "name": "",
          "type": "bool"
        }
      ],
      "payable": false,
      "stateMutability": "nonpayable",
      "type": "function"
    },
    {
      "constant": false,
      "inputs": [
        {
          "name": "to",
          "type": "address"
        }
      ],
      "name": "transferFunds",
      "outputs": [
        {
          "name": "",
          "type": "bool"
        }
      ],
      "payable": false,
      "stateMutability": "nonpayable",
      "type": "function"
    },
    {
      "constant": false,
      "inputs": [
        {
          "name": "token",
          "type": "address"
        }
      ],
      "name": "authorizeTokenClaim",
      "outputs": [
        {
          "name": "",
          "type": "bool"
        }
      ],
      "payable": false,
      "stateMutability": "nonpayable",
      "type": "function"
    },
    {
      "constant": false,
      "inputs": [
        {
          "name": "token",
          "type": "address"
        }
      ],
      "name": "unAuthorizeTokenClaim",
      "outputs": [
        {
          "name": "",
          "type": "bool"
        }
      ],
      "payable": false,
      "stateMutability": "nonpayable",
      "type": "function"
    },
    {
      "constant": false,
      "inputs": [
        {
          "name": "token",
          "type": "address"
        }
      ],
      "name": "claim",
      "outputs": [
        {
          "name": "",
          "type": "bool"
        }
      ],
      "payable": false,
      "stateMutability": "nonpayable",
      "type": "function"
    }
  ],
  "bytecode": "0x608060405260008060146101000a81548160ff0219169083600381111561002257fe5b0217905550600060095534801561003857600080fd5b5060405160e08061203e83398101806040528101908080519060200190929190805190602001909291908051906020019092919080519060200190929190805190602001909291908051906020019092919080519060200190929190505050336000806101000a81548173ffffffffffffffffffffffffffffffffffffffff021916908373ffffffffffffffffffffffffffffffffffffffff1602179055506103e88160ff16111515156100eb57600080fd5b6000871115156100fa57600080fd5b6009548411151561010a57600080fd5b42600281905550326000806101000a81548173ffffffffffffffffffffffffffffffffffffffff021916908373ffffffffffffffffffffffffffffffffffffffff16021790555033600160006101000a81548173ffffffffffffffffffffffffffffffffffffffff021916908373ffffffffffffffffffffffffffffffffffffffff16021790555081600460006101000a81548173ffffffffffffffffffffffffffffffffffffffff021916908373ffffffffffffffffffffffffffffffffffffffff1602179055508060ff16600c60006101000a81548161ffff021916908361ffff16021790555085600581905550846006819055508360078190555060018702420160038190555082600a60006101000a81548160ff02191690831515021790555050505050505050611dfa806102446000396000f30060806040526004361061013e576000357c0100000000000000000000000000000000000000000000000000000000900463ffffffff16806306d586bb146101905780631e83409a146101bb5780632e1a7d4d146102165780633c3c9c231461025b578063464c76aa1461028657806347e7ef24146102fd5780635f28b3831461033d57806366805de514610368578063673ba2b51461037f57806379ec1045146103da57806384b366dc1461040d578063862b8632146104645780638da5cb5b146104bb5780639593c06c14610512578063a985408714610569578063c19d93fb14610594578063c70db323146105cd578063cb7e3078146105fc578063e39ff19f14610627578063e3d670d714610682578063e4860339146106d9578063eae4c19f14610734578063f2fde38b1461075f578063fb98f68c146107a2575b4260035411151561014e57600080fd5b600080600381111561015c57fe5b600060149054906101000a900460ff16600381111561017757fe5b14151561018357600080fd5b61018d33346107fd565b50005b34801561019c57600080fd5b506101a561094a565b6040518082815260200191505060405180910390f35b3480156101c757600080fd5b506101fc600480360381019080803573ffffffffffffffffffffffffffffffffffffffff169060200190929190505050610950565b604051808215151515815260200191505060405180910390f35b34801561022257600080fd5b5061024160048036038101908080359060200190929190505050610fc2565b604051808215151515815260200191505060405180910390f35b34801561026757600080fd5b50610270611173565b6040518082815260200191505060405180910390f35b34801561029257600080fd5b506102e7600480360381019080803573ffffffffffffffffffffffffffffffffffffffff169060200190929190803573ffffffffffffffffffffffffffffffffffffffff169060200190929190505050611179565b6040518082815260200191505060405180910390f35b61033b600480360381019080803573ffffffffffffffffffffffffffffffffffffffff169060200190929190803590602001909291905050506107fd565b005b34801561034957600080fd5b5061035261119e565b6040518082815260200191505060405180910390f35b34801561037457600080fd5b5061037d6111a4565b005b34801561038b57600080fd5b506103c0600480360381019080803573ffffffffffffffffffffffffffffffffffffffff16906020019092919050505061129e565b604051808215151515815260200191505060405180910390f35b3480156103e657600080fd5b506103ef611413565b604051808261ffff1661ffff16815260200191505060405180910390f35b34801561041957600080fd5b50610422611427565b604051808273ffffffffffffffffffffffffffffffffffffffff1673ffffffffffffffffffffffffffffffffffffffff16815260200191505060405180910390f35b34801561047057600080fd5b506104a5600480360381019080803573ffffffffffffffffffffffffffffffffffffffff16906020019092919050505061144d565b6040518082815260200191505060405180910390f35b3480156104c757600080fd5b506104d0611465565b604051808273ffffffffffffffffffffffffffffffffffffffff1673ffffffffffffffffffffffffffffffffffffffff16815260200191505060405180910390f35b34801561051e57600080fd5b506105676004803603810190808035906020019092919080359060200190929190803590602001909291908035906020019092919080351515906020019092919050505061148a565b005b34801561057557600080fd5b5061057e61158c565b6040518082815260200191505060405180910390f35b3480156105a057600080fd5b506105a9611592565b604051808260038111156105b957fe5b60ff16815260200191505060405180910390f35b3480156105d957600080fd5b506105e26115a5565b604051808215151515815260200191505060405180910390f35b34801561060857600080fd5b506106116115b8565b6040518082815260200191505060405180910390f35b34801561063357600080fd5b50610668600480360381019080803573ffffffffffffffffffffffffffffffffffffffff1690602001909291905050506115be565b604051808215151515815260200191505060405180910390f35b34801561068e57600080fd5b506106c3600480360381019080803573ffffffffffffffffffffffffffffffffffffffff169060200190929190505050611990565b6040518082815260200191505060405180910390f35b3480156106e557600080fd5b5061071a600480360381019080803573ffffffffffffffffffffffffffffffffffffffff1690602001909291905050506119a8565b604051808215151515815260200191505060405180910390f35b34801561074057600080fd5b506107496119c8565b6040518082815260200191505060405180910390f35b34801561076b57600080fd5b506107a0600480360381019080803573ffffffffffffffffffffffffffffffffffffffff1690602001909291905050506119ce565b005b3480156107ae57600080fd5b506107e3600480360381019080803573ffffffffffffffffffffffffffffffffffffffff169060200190929190505050611b23565b604051808215151515815260200191505060405180910390f35b6000804260035411151561081057600080fd5b82600860008673ffffffffffffffffffffffffffffffffffffffff1673ffffffffffffffffffffffffffffffffffffffff1681526020019081526020016000205401915082600954019050816006541115151561086c57600080fd5b600554831015151561087d57600080fd5b600754811115151561088e57600080fd5b81600860008673ffffffffffffffffffffffffffffffffffffffff1673ffffffffffffffffffffffffffffffffffffffff16815260200190815260200160002081905550806009819055507f23009393721a27d6803b599bf9f0747edfd97c6fe82522bedeb95c05150c9b408484604051808373ffffffffffffffffffffffffffffffffffffffff1673ffffffffffffffffffffffffffffffffffffffff1681526020018281526020019250505060405180910390a150505050565b60065481565b6000806000804260035410151561096657600080fd5b8460008173ffffffffffffffffffffffffffffffffffffffff166370a08231306040518263ffffffff167c0100000000000000000000000000000000000000000000000000000000028152600401808273ffffffffffffffffffffffffffffffffffffffff1673ffffffffffffffffffffffffffffffffffffffff168152602001915050602060405180830381600087803b158015610a0457600080fd5b505af1158015610a18573d6000803e3d6000fd5b505050506040513d6020811015610a2e57600080fd5b8101908080519060200190929190505050111515610a4b57600080fd5b6000600860003373ffffffffffffffffffffffffffffffffffffffff1673ffffffffffffffffffffffffffffffffffffffff16815260200190815260200160002054111515610a9957600080fd5b60001515600a60009054906101000a900460ff1615151415610b0e57600b60008773ffffffffffffffffffffffffffffffffffffffff1673ffffffffffffffffffffffffffffffffffffffff16815260200190815260200160002060009054906101000a900460ff161515610b0d57600080fd5b5b600f60008773ffffffffffffffffffffffffffffffffffffffff1673ffffffffffffffffffffffffffffffffffffffff168152602001908152602001600020548673ffffffffffffffffffffffffffffffffffffffff166370a08231306040518263ffffffff167c0100000000000000000000000000000000000000000000000000000000028152600401808273ffffffffffffffffffffffffffffffffffffffff1673ffffffffffffffffffffffffffffffffffffffff168152602001915050602060405180830381600087803b158015610be957600080fd5b505af1158015610bfd573d6000803e3d6000fd5b505050506040513d6020811015610c1357600080fd5b8101908080519060200190929190505050019350600954600860003373ffffffffffffffffffffffffffffffffffffffff1673ffffffffffffffffffffffffffffffffffffffff16815260200190815260200160002054811515610c7357fe5b0484029250600d60003373ffffffffffffffffffffffffffffffffffffffff1673ffffffffffffffffffffffffffffffffffffffff16815260200190815260200160002060008773ffffffffffffffffffffffffffffffffffffffff1673ffffffffffffffffffffffffffffffffffffffff1681526020019081526020016000205483039150600082111515610d0857600080fd5b81600f60008873ffffffffffffffffffffffffffffffffffffffff1673ffffffffffffffffffffffffffffffffffffffff1681526020019081526020016000206000828254019250508190555081600d60003373ffffffffffffffffffffffffffffffffffffffff1673ffffffffffffffffffffffffffffffffffffffff16815260200190815260200160002060008873ffffffffffffffffffffffffffffffffffffffff1673ffffffffffffffffffffffffffffffffffffffff168152602001908152602001600020600082825401925050819055506003600060146101000a81548160ff02191690836003811115610dfe57fe5b02179055508573ffffffffffffffffffffffffffffffffffffffff166323b872dd3033856040518463ffffffff167c0100000000000000000000000000000000000000000000000000000000028152600401808473ffffffffffffffffffffffffffffffffffffffff1673ffffffffffffffffffffffffffffffffffffffff1681526020018373ffffffffffffffffffffffffffffffffffffffff1673ffffffffffffffffffffffffffffffffffffffff1681526020018281526020019350505050602060405180830381600087803b158015610eda57600080fd5b505af1158015610eee573d6000803e3d6000fd5b505050506040513d6020811015610f0457600080fd5b8101908080519060200190929190505050507f1ce4a6068a020847732bce06b833f1b0ef42e08611a45ca145fa2e5916f1db8a338784604051808473ffffffffffffffffffffffffffffffffffffffff1673ffffffffffffffffffffffffffffffffffffffff1681526020018373ffffffffffffffffffffffffffffffffffffffff1673ffffffffffffffffffffffffffffffffffffffff168152602001828152602001935050505060405180910390a16001945050505050919050565b60006003806003811115610fd257fe5b600060149054906101000a900460ff166003811115610fed57fe5b14151515610ffa57600080fd5b6000600860003373ffffffffffffffffffffffffffffffffffffffff1673ffffffffffffffffffffffffffffffffffffffff1681526020019081526020016000205411151561104857600080fd5b823073ffffffffffffffffffffffffffffffffffffffff16311015151561106e57600080fd5b82600860003373ffffffffffffffffffffffffffffffffffffffff1673ffffffffffffffffffffffffffffffffffffffff168152602001908152602001600020600082825403925050819055503373ffffffffffffffffffffffffffffffffffffffff166108fc849081150290604051600060405180830381858888f19350505050158015611101573d6000803e3d6000fd5b507f6202b9210eddfec514dee7725e74c49be931243a5fda51c01552a5fb07e893dd3384604051808373ffffffffffffffffffffffffffffffffffffffff1673ffffffffffffffffffffffffffffffffffffffff1681526020018281526020019250505060405180910390a150919050565b60095481565b600d602052816000526040600020602052806000526040600020600091509150505481565b60055481565b6000809054906101000a900473ffffffffffffffffffffffffffffffffffffffff1673ffffffffffffffffffffffffffffffffffffffff163373ffffffffffffffffffffffffffffffffffffffff161415156111ff57600080fd5b4260035411151561120f57600080fd5b600080600381111561121d57fe5b600060149054906101000a900460ff16600381111561123857fe5b14151561124457600080fd5b426003819055506001600060146101000a81548160ff0219169083600381111561126a57fe5b02179055507fc7fd8db71ff4df7d04073851d967c2fc797f4b5a885c27225e9cb304cde1b07d60405160405180910390a150565b60008060009054906101000a900473ffffffffffffffffffffffffffffffffffffffff1673ffffffffffffffffffffffffffffffffffffffff163373ffffffffffffffffffffffffffffffffffffffff161415156112fb57600080fd5b60001515600a60009054906101000a900460ff16151514151561131d57600080fd5b4260035410151561132d57600080fd5b60001515600a60009054906101000a900460ff16151514151561134f57600080fd5b6000600b60008473ffffffffffffffffffffffffffffffffffffffff1673ffffffffffffffffffffffffffffffffffffffff16815260200190815260200160002060006101000a81548160ff0219169083151502179055507fb2e351d7e80c490e5dc2564259242d931e555d50ebc07bfa81a4562cc1706c2582604051808273ffffffffffffffffffffffffffffffffffffffff1673ffffffffffffffffffffffffffffffffffffffff16815260200191505060405180910390a160019050919050565b600c60009054906101000a900461ffff1681565b600460009054906101000a900473ffffffffffffffffffffffffffffffffffffffff1681565b600f6020528060005260406000206000915090505481565b6000809054906101000a900473ffffffffffffffffffffffffffffffffffffffff1681565b4260035411151561149a57600080fd5b60008060038111156114a857fe5b600060149054906101000a900460ff1660038111156114c357fe5b1415156114cf57600080fd5b6000861115156114de57600080fd5b600954831115156114ee57600080fd5b84600581905550836006819055508260078190555060018602420160038190555081600a60006101000a81548160ff0219169083151502179055507f0542933e23099aca99ccb380feb75e4d4e7c7abf91efbbf88b22f7c6b5e54d60868686868660405180868152602001858152602001848152602001838152602001821515151581526020019550505050505060405180910390a1505050505050565b60035481565b600060149054906101000a900460ff1681565b600a60009054906101000a900460ff1681565b60075481565b6000806000806000809054906101000a900473ffffffffffffffffffffffffffffffffffffffff1673ffffffffffffffffffffffffffffffffffffffff163373ffffffffffffffffffffffffffffffffffffffff1614151561161f57600080fd5b4260035410151561162f57600080fd5b60003073ffffffffffffffffffffffffffffffffffffffff163111151561165557600080fd5b600073ffffffffffffffffffffffffffffffffffffffff16600460009054906101000a900473ffffffffffffffffffffffffffffffffffffffff1673ffffffffffffffffffffffffffffffffffffffff1614151561170a578473ffffffffffffffffffffffffffffffffffffffff16600460009054906101000a900473ffffffffffffffffffffffffffffffffffffffff1673ffffffffffffffffffffffffffffffffffffffff1614151561170957600080fd5b5b6002600381111561171757fe5b600060149054906101000a900460ff16600381111561173257fe5b1415156118845761174f6103e86005611d8090919063ffffffff16565b925061176683600954611d9690919063ffffffff16565b9150600160009054906101000a900473ffffffffffffffffffffffffffffffffffffffff1673ffffffffffffffffffffffffffffffffffffffff166108fc839081150290604051600060405180830381858888f193505050501580156117d0573d6000803e3d6000fd5b506000600c60009054906101000a900461ffff1661ffff161115611883576103e8600c60009054906101000a900461ffff1661ffff1681151561180f57fe5b0461ffff166009540290506000809054906101000a900473ffffffffffffffffffffffffffffffffffffffff1673ffffffffffffffffffffffffffffffffffffffff166108fc829081150290604051600060405180830381858888f19350505050158015611881573d6000803e3d6000fd5b505b5b6002600060146101000a81548160ff021916908360038111156118a357fe5b02179055508473ffffffffffffffffffffffffffffffffffffffff166108fc3073ffffffffffffffffffffffffffffffffffffffff16319081150290604051600060405180830381858888f19350505050158015611905573d6000803e3d6000fd5b507facfada45e09e5bb4c2c456febe99efe38be8bfc67a25cccdbb4c93ec56f661a5853073ffffffffffffffffffffffffffffffffffffffff1631604051808373ffffffffffffffffffffffffffffffffffffffff1673ffffffffffffffffffffffffffffffffffffffff1681526020018281526020019250505060405180910390a1505050919050565b60086020528060005260406000206000915090505481565b600b6020528060005260406000206000915054906101000a900460ff1681565b60025481565b6000809054906101000a900473ffffffffffffffffffffffffffffffffffffffff1673ffffffffffffffffffffffffffffffffffffffff163373ffffffffffffffffffffffffffffffffffffffff16141515611a2957600080fd5b600073ffffffffffffffffffffffffffffffffffffffff168173ffffffffffffffffffffffffffffffffffffffff1614151515611a6557600080fd5b8073ffffffffffffffffffffffffffffffffffffffff166000809054906101000a900473ffffffffffffffffffffffffffffffffffffffff1673ffffffffffffffffffffffffffffffffffffffff167f8be0079c531659141344cd1fd0a4f28419497f9722a3daafe3b4186f6b6457e060405160405180910390a3806000806101000a81548173ffffffffffffffffffffffffffffffffffffffff021916908373ffffffffffffffffffffffffffffffffffffffff16021790555050565b60008060009054906101000a900473ffffffffffffffffffffffffffffffffffffffff1673ffffffffffffffffffffffffffffffffffffffff163373ffffffffffffffffffffffffffffffffffffffff16141515611b8057600080fd5b8160008173ffffffffffffffffffffffffffffffffffffffff166370a08231306040518263ffffffff167c0100000000000000000000000000000000000000000000000000000000028152600401808273ffffffffffffffffffffffffffffffffffffffff1673ffffffffffffffffffffffffffffffffffffffff168152602001915050602060405180830381600087803b158015611c1e57600080fd5b505af1158015611c32573d6000803e3d6000fd5b505050506040513d6020811015611c4857600080fd5b8101908080519060200190929190505050111515611c6557600080fd5b60001515600a60009054906101000a900460ff161515141515611c8757600080fd5b42600354101515611c9757600080fd5b6003600060146101000a81548160ff02191690836003811115611cb657fe5b02179055506001600b60008573ffffffffffffffffffffffffffffffffffffffff1673ffffffffffffffffffffffffffffffffffffffff16815260200190815260200160002060006101000a81548160ff0219169083151502179055507fd578f84e7496243d3c9ef54305f65812ae30c4c5b66c630cb436ae1f719f3aeb83604051808273ffffffffffffffffffffffffffffffffffffffff1673ffffffffffffffffffffffffffffffffffffffff16815260200191505060405180910390a16001915050919050565b60008183811515611d8d57fe5b04905092915050565b600080831415611da95760009050611dc8565b8183029050818382811515611dba57fe5b04141515611dc457fe5b8090505b929150505600a165627a7a7230582018ee9161d1580e8e54de9a1e242473c778e35d1200cc13579b27cf7024583aec0029",
  "source": "pragma solidity ^0.4.17;\n\nimport 'openzeppelin-solidity/contracts/ownership/Ownable.sol';\nimport 'openzeppelin-solidity/contracts/token/ERC20/ERC20.sol'; \nimport 'openzeppelin-solidity/contracts/math/SafeMath.sol';\n\n\ncontract Pool is Ownable {\n\tusing SafeMath for uint256;\n\n  enum State {\n\t  Open, //users can send ETH to pool\n\t  Close, //users can't send ETH to pool, waiting owner to send funds\n\t  Transferred, //funds has been send, waiting to receive tokens\n\t  Claiming // claiming started\n  }\n\n  // This is the current state.\n  State public state = State.Open;\n\n\taddress internal poolsContract;\n\n  uint256 public deployedAt;\n  uint256 public closeAt; \n\n  address public dest;\n\n  uint256 public minPerUser;\n  uint256 public maxPerUser;\n  uint256 public maxPool;\n  mapping (address => uint256) public balance;\n  uint256 public totalEth = 0;\n\n  //autoclaim\n  bool public autoClaim;\n  // ERC20[] public tokens;\n  mapping (address => bool) public tokens;\n\n  //fees\n  uint16 public ownerFeesPct; //will be divided by 1000. Exemple for 0.5%, ownerFees = 5\n\n  // mapping (address => mapping (ERC20 => uint256)) public userTotalTokenClaimed;\n  mapping (address => mapping (address => uint256)) public userTotalTokenClaimed;\n\n  //from standard tokens\n  mapping (address => mapping (address => uint256)) internal allowed;\n\n  // Question : Is this correct ?\n  // we can have this by looping in userTotalTokenClaimed, but it's better like this to save gas\n  // mapping (ERC20 => uint256) public poolTotalTokenClaimed; \n  mapping (address => uint256) public poolTotalTokenClaimed; \n\n  event logDeposit(address sender, uint256 amount);\n  event logWithdrawal(address receiver, uint256 amount);\n  event logClosePool();\n  event logReOpenPool();\n  event logTransfer(address to, uint256 amount);\n  event logAuthorize(ERC20 token);\n  event logUnAuthorize(ERC20 token);\n  event logClaim(address from, ERC20 token, uint256 amount);\n\n  event logUpdatePool(uint256 _closeSeconds, uint256 _minPerUser, uint256 _maxPerUser, uint256 _maxPool, bool _autoClaim);\n\n\tfunction Pool(uint256 _closeSeconds, uint256 _minPerUser, uint256 _maxPerUser, uint256 _maxPool, bool _autoClaim, address _dest, uint8 _ownerFeesPct) public {\n\t\trequire(_ownerFeesPct <= 1000);\n\t\trequire(_closeSeconds > 0);\n  \trequire(_maxPool > totalEth);\n  \t\n\t\tdeployedAt = now;\n\n\t\t//https://dappsforbeginners.wordpress.com/tutorials/interactions-between-contracts/\n\t\towner = tx.origin;\n\t\tpoolsContract = msg.sender;\n\n\t\tdest = _dest;\n\t\townerFeesPct = _ownerFeesPct;\n\n\t\tminPerUser = _minPerUser;\n\t\tmaxPerUser = _maxPerUser;\n\t\tmaxPool = _maxPool;\n\t\t//need to use safemath here\n\t\tcloseAt = now + _closeSeconds * 1 seconds;\n\t\tautoClaim = _autoClaim;\n\n\t\t// updatePool(_closeSeconds, _minPerUser, _maxPerUser, _maxPool, _autoClaim);\n\t}\n\n\tmodifier atState(State _state) {\n    require(state == _state);\n    _;\n  }\n\n\tmodifier notAtState(State _state) {\n    require(state != _state);\n    _;\n  }\n\n\tmodifier onlyPoolClose() {\n\t\trequire(closeAt < now);\n\t\t_;\n\t}\n\n\tmodifier onlyPoolOpen() {\n\t\trequire(closeAt > now);\n\t\t_;\n\t}\n\n\tfunction updatePool(uint256 _closeSeconds, uint256 _minPerUser, uint256 _maxPerUser, uint256 _maxPool, bool _autoClaim) public onlyPoolOpen atState(State.Open) {\n\t\trequire(_closeSeconds > 0);\n  \trequire(_maxPool > totalEth);\n\n\t\tminPerUser = _minPerUser;\n\t\tmaxPerUser = _maxPerUser;\n\t\tmaxPool = _maxPool;\n\t\t//need to use safemath here\n\t\tcloseAt = now + _closeSeconds * 1 seconds;\n\t\tautoClaim = _autoClaim;\n\n\t\temit logUpdatePool(_closeSeconds, _minPerUser, _maxPerUser, _maxPool, _autoClaim);\n  }\n\n\tfunction () external payable onlyPoolOpen atState(State.Open) {\n    deposit(msg.sender, msg.value);\n  }\n\n  function deposit(address user, uint256 value) public payable onlyPoolOpen {\n    // use math contract here to add etc... (because overflow protection)\n    \n    // TODO: value need to be converted from GWEI to ETH\n    uint256 futureUserTotalValue = balance[user] + value;\n    uint256 futurePoolTotalValue = totalEth + value;\n    require(maxPerUser<=futureUserTotalValue);\n    require(value>=minPerUser);\n    require(futurePoolTotalValue<=maxPool);\n\n    //TODO: Need to check minPerUser maxPerUser maxPool\n    balance[user] = futureUserTotalValue;\n    totalEth = futurePoolTotalValue;\n    emit logDeposit(user, value);\n  }\n\n  function closePool() public onlyOwner onlyPoolOpen atState(State.Open) { \n    closeAt = now;\n    state = State.Close;\n    emit logClosePool();\n  }\n\n  function withdraw(uint256 value) public notAtState(State.Claiming) returns (bool) {\n  \trequire(balance[msg.sender] > 0);\n  \trequire(address(this).balance >= value);\n\t\tbalance[msg.sender] -= value;\n    msg.sender.transfer(value);\n    emit logWithdrawal(msg.sender, value);\n  }\n\n  function transferFunds(address to) public onlyOwner onlyPoolClose returns (bool) {\n  \trequire(address(this).balance > 0);\n\n  \tif (dest != address(0)) {\n  \t\trequire(dest == to);\n  \t}\n\n  \tif (state != State.Transferred) {\n  \t\t// pooled fees\n  \t\tuint256 div = uint256(5).div(uint256(1000));\n  \t\tuint256 pooledFees = totalEth.mul(div);\n  \t\t//uint256 pooledFees = totalEth * (5/1000);\n  \t\t// TODO: pooledFees need to be converted from GWEI to ETH\n  \t\tpoolsContract.transfer(pooledFees);\n\n\t  \t// owner fee\n\t  \tif (ownerFeesPct > 0) {\n\t  \t\tuint256 ownerFees = totalEth * (ownerFeesPct/1000);\n\t  \t\t// TODO: owner need to be converted from GWEI to ETH\n\t  \t\towner.transfer(ownerFees);\n\t  \t}\n  \t}\n\n  \tstate = State.Transferred;\n  \tto.transfer(address(this).balance);\n  \temit logTransfer(to, address(this).balance);\n  }\n\n  // After TGE (token generation event), tokens has been sent to pool. \n\n\tmodifier isNotAutoClaim() {\n\t\trequire(autoClaim == false);\n\t\t_;\n\t}\n\n\tmodifier poolHasToken(ERC20 token) {\n\t\trequire(token.balanceOf(address(this)) > 0);\n\t\t_;\n\t}\n\n  // only need to call this function if autoClaim is false\n  function authorizeTokenClaim(ERC20 token) public onlyOwner poolHasToken(token) isNotAutoClaim onlyPoolClose returns (bool) {\n  \tstate = State.Claiming;\n  \ttokens[token] = true;\n  \temit logAuthorize(token);\n\n  \treturn true;\n  }\n\n  function unAuthorizeTokenClaim(ERC20 token) public onlyOwner isNotAutoClaim onlyPoolClose returns (bool) {\n  \trequire(autoClaim == false);\n\n  \ttokens[token] = false;\n  \temit logUnAuthorize(token);\n\n  \treturn true;\n  }\n\n  // NEED TO USE SAFEMATH FOR CALCULATIONS\n  function claim(ERC20 token) public onlyPoolClose poolHasToken(token) returns (bool) {\n  \t//Question : What's the point of doing multiples require again ?\n  \trequire(balance[msg.sender] > 0);\n\n  \tif (autoClaim == false) {\n  \t\trequire(tokens[token]);\n  \t}\n\n  \tuint256 totalPoolTokens = token.balanceOf(address(this)) + poolTotalTokenClaimed[token];\n  \t\n  \tuint256 totalUserClaimToken = totalPoolTokens * (balance[msg.sender] / totalEth);\n  \t// total_tokens*(balance/total_eth)\n  \tuint256 restUserClaimToken = totalUserClaimToken - userTotalTokenClaimed[msg.sender][token];\n  \t\n  \trequire(restUserClaimToken > 0);\n\n  \t// Question :Is it better to do that first or after transfer ?\n  \t// then we update our balance\n  \tpoolTotalTokenClaimed[token] += restUserClaimToken;\n  \tuserTotalTokenClaimed[msg.sender][token] += restUserClaimToken;\n\n  \tstate = State.Claiming;\n\n  \t//Question : how do I transfer ERC20 token to user ? I'm confuse here\n  \ttoken.transferFrom(address(this), msg.sender, restUserClaimToken);\n\n  \temit logClaim(msg.sender, token, restUserClaimToken);\n\n  \t//Question : I saw ERC20 returning bool true, is it a good practices ?\n  \treturn true;\n  }\n\n}",
  "sourcePath": "/Users/fjalcaraz/Desktop/SBC/project/pooled/express/contracts/Pool.sol",
  "compiler": {
    "name": "solc",
    "version": "0.4.23+commit.124ca40d.Emscripten.clang"
  },
  "schemaVersion": "2.0.0",
  "updatedAt": "2018-06-06T03:44:55.704Z"
}