{
  "contractName": "Pools",
  "abi": [
    {
      "constant": true,
      "inputs": [],
      "name": "owner",
      "outputs": [
        {
          "name": "",
          "type": "address"
        }
      ],
      "payable": false,
      "stateMutability": "view",
      "type": "function"
    },
    {
      "constant": true,
      "inputs": [
        {
          "name": "",
          "type": "address"
        },
        {
          "name": "",
          "type": "uint256"
        }
      ],
      "name": "owners",
      "outputs": [
        {
          "name": "",
          "type": "address"
        }
      ],
      "payable": false,
      "stateMutability": "view",
      "type": "function"
    },
    {
      "constant": false,
      "inputs": [
        {
          "name": "newOwner",
          "type": "address"
        }
      ],
      "name": "transferOwnership",
      "outputs": [],
      "payable": false,
      "stateMutability": "nonpayable",
      "type": "function"
    },
    {
      "inputs": [],
      "payable": false,
      "stateMutability": "nonpayable",
      "type": "constructor"
    },
    {
      "anonymous": false,
      "inputs": [
        {
          "indexed": true,
          "name": "pool",
          "type": "address"
        },
        {
          "indexed": true,
          "name": "owner",
          "type": "address"
        }
      ],
      "name": "poolCreated",
      "type": "event"
    },
    {
      "anonymous": false,
      "inputs": [
        {
          "indexed": true,
          "name": "previousOwner",
          "type": "address"
        },
        {
          "indexed": true,
          "name": "newOwner",
          "type": "address"
        }
      ],
      "name": "OwnershipTransferred",
      "type": "event"
    },
    {
      "constant": false,
      "inputs": [
        {
          "name": "_closeSeconds",
          "type": "uint256"
        },
        {
          "name": "_minPerUser",
          "type": "uint256"
        },
        {
          "name": "_maxPerUser",
          "type": "uint256"
        },
        {
          "name": "_maxPool",
          "type": "uint256"
        },
        {
          "name": "_autoClaim",
          "type": "bool"
        },
        {
          "name": "_dest",
          "type": "address"
        },
        {
          "name": "_ownerFeesPct",
          "type": "uint8"
        }
      ],
      "name": "deployPool",
      "outputs": [
        {
          "name": "",
          "type": "address"
        }
      ],
      "payable": false,
      "stateMutability": "nonpayable",
      "type": "function"
    },
    {
      "constant": true,
      "inputs": [
        {
          "name": "addr",
          "type": "address"
        }
      ],
      "name": "getPools",
      "outputs": [
        {
          "name": "",
          "type": "address[]"
        }
      ],
      "payable": false,
      "stateMutability": "view",
      "type": "function"
    }
  ],
  "bytecode": "0x608060405234801561001057600080fd5b50336000806101000a81548173ffffffffffffffffffffffffffffffffffffffff021916908373ffffffffffffffffffffffffffffffffffffffff160217905550612866806100606000396000f30060806040526004361061006d576000357c0100000000000000000000000000000000000000000000000000000000900463ffffffff1680632eb1eb31146100725780635c39f467146101365780638da5cb5b146101ce5780639b3e278714610225578063f2fde38b146102b2575b600080fd5b34801561007e57600080fd5b506100f460048036038101908080359060200190929190803590602001909291908035906020019092919080359060200190929190803515159060200190929190803573ffffffffffffffffffffffffffffffffffffffff169060200190929190803560ff1690602001909291905050506102f5565b604051808273ffffffffffffffffffffffffffffffffffffffff1673ffffffffffffffffffffffffffffffffffffffff16815260200191505060405180910390f35b34801561014257600080fd5b50610177600480360381019080803573ffffffffffffffffffffffffffffffffffffffff1690602001909291905050506104ce565b6040518080602001828103825283818151815260200191508051906020019060200280838360005b838110156101ba57808201518184015260208101905061019f565b505050509050019250505060405180910390f35b3480156101da57600080fd5b506101e361059b565b604051808273ffffffffffffffffffffffffffffffffffffffff1673ffffffffffffffffffffffffffffffffffffffff16815260200191505060405180910390f35b34801561023157600080fd5b50610270600480360381019080803573ffffffffffffffffffffffffffffffffffffffff169060200190929190803590602001909291905050506105c0565b604051808273ffffffffffffffffffffffffffffffffffffffff1673ffffffffffffffffffffffffffffffffffffffff16815260200191505060405180910390f35b3480156102be57600080fd5b506102f3600480360381019080803573ffffffffffffffffffffffffffffffffffffffff16906020019092919050505061060d565b005b6000806103e88360ff161115151561030c57600080fd5b60008911151561031b57600080fd5b60008611151561032a57600080fd5b88888888888888610339610762565b80888152602001878152602001868152602001858152602001841515151581526020018373ffffffffffffffffffffffffffffffffffffffff1673ffffffffffffffffffffffffffffffffffffffff1681526020018260ff1660ff168152602001975050505050505050604051809103906000f0801580156103bf573d6000803e3d6000fd5b509050600160003373ffffffffffffffffffffffffffffffffffffffff1673ffffffffffffffffffffffffffffffffffffffff1681526020019081526020016000208190806001815401808255809150509060018203906000526020600020016000909192909190916101000a81548173ffffffffffffffffffffffffffffffffffffffff021916908373ffffffffffffffffffffffffffffffffffffffff160217905550503373ffffffffffffffffffffffffffffffffffffffff168173ffffffffffffffffffffffffffffffffffffffff167f3dcece824fa0ae4b6319d0e025aeebc5e1306a8029066ece58d8eaf9e229b57e60405160405180910390a380915050979650505050505050565b6060600160008373ffffffffffffffffffffffffffffffffffffffff1673ffffffffffffffffffffffffffffffffffffffff16815260200190815260200160002080548060200260200160405190810160405280929190818152602001828054801561058f57602002820191906000526020600020905b8160009054906101000a900473ffffffffffffffffffffffffffffffffffffffff1673ffffffffffffffffffffffffffffffffffffffff1681526020019060010190808311610545575b50505050509050919050565b6000809054906101000a900473ffffffffffffffffffffffffffffffffffffffff1681565b6001602052816000526040600020818154811015156105db57fe5b906000526020600020016000915091509054906101000a900473ffffffffffffffffffffffffffffffffffffffff1681565b6000809054906101000a900473ffffffffffffffffffffffffffffffffffffffff1673ffffffffffffffffffffffffffffffffffffffff163373ffffffffffffffffffffffffffffffffffffffff1614151561066857600080fd5b600073ffffffffffffffffffffffffffffffffffffffff168173ffffffffffffffffffffffffffffffffffffffff16141515156106a457600080fd5b8073ffffffffffffffffffffffffffffffffffffffff166000809054906101000a900473ffffffffffffffffffffffffffffffffffffffff1673ffffffffffffffffffffffffffffffffffffffff167f8be0079c531659141344cd1fd0a4f28419497f9722a3daafe3b4186f6b6457e060405160405180910390a3806000806101000a81548173ffffffffffffffffffffffffffffffffffffffff021916908373ffffffffffffffffffffffffffffffffffffffff16021790555050565b6040516120c880610773833901905600608060405260008060146101000a81548160ff021916908360038111156200002357fe5b021790555060006009553480156200003a57600080fd5b5060405160e080620020c883398101806040528101908080519060200190929190805190602001909291908051906020019092919080519060200190929190805190602001909291908051906020019092919080519060200190929190505050336000806101000a81548173ffffffffffffffffffffffffffffffffffffffff021916908373ffffffffffffffffffffffffffffffffffffffff160217905550426002819055506000600981905550326000806101000a81548173ffffffffffffffffffffffffffffffffffffffff021916908373ffffffffffffffffffffffffffffffffffffffff16021790555033600160006101000a81548173ffffffffffffffffffffffffffffffffffffffff021916908373ffffffffffffffffffffffffffffffffffffffff16021790555081600460006101000a81548173ffffffffffffffffffffffffffffffffffffffff021916908373ffffffffffffffffffffffffffffffffffffffff1602179055508060ff16600c60006101000a81548161ffff021916908361ffff160217905550620001e98787878787620001f6640100000000026401000000009004565b50505050505050620002dd565b426003541115156200020757600080fd5b60008060038111156200021657fe5b600060149054906101000a900460ff1660038111156200023257fe5b1415156200023f57600080fd5b84600581905550836006819055508260078190555060018602420160038190555081600a60006101000a81548160ff0219169083151502179055507f0542933e23099aca99ccb380feb75e4d4e7c7abf91efbbf88b22f7c6b5e54d60868686868660405180868152602001858152602001848152602001838152602001821515151581526020019550505050505060405180910390a1505050505050565b611ddb80620002ed6000396000f30060806040526004361061013e576000357c0100000000000000000000000000000000000000000000000000000000900463ffffffff16806306d586bb146101905780631e83409a146101bb5780632e1a7d4d146102165780633c3c9c231461025b578063464c76aa1461028657806347e7ef24146102fd5780635f28b3831461033d57806366805de514610368578063673ba2b51461037f57806379ec1045146103da57806384b366dc1461040d578063862b8632146104645780638da5cb5b146104bb5780639593c06c14610512578063a985408714610569578063c19d93fb14610594578063c70db323146105cd578063cb7e3078146105fc578063e39ff19f14610627578063e3d670d714610682578063e4860339146106d9578063eae4c19f14610734578063f2fde38b1461075f578063fb98f68c146107a2575b4260035411151561014e57600080fd5b600080600381111561015c57fe5b600060149054906101000a900460ff16600381111561017757fe5b14151561018357600080fd5b61018d33346107fd565b50005b34801561019c57600080fd5b506101a561094a565b6040518082815260200191505060405180910390f35b3480156101c757600080fd5b506101fc600480360381019080803573ffffffffffffffffffffffffffffffffffffffff169060200190929190505050610950565b604051808215151515815260200191505060405180910390f35b34801561022257600080fd5b5061024160048036038101908080359060200190929190505050610fc2565b604051808215151515815260200191505060405180910390f35b34801561026757600080fd5b50610270611173565b6040518082815260200191505060405180910390f35b34801561029257600080fd5b506102e7600480360381019080803573ffffffffffffffffffffffffffffffffffffffff169060200190929190803573ffffffffffffffffffffffffffffffffffffffff169060200190929190505050611179565b6040518082815260200191505060405180910390f35b61033b600480360381019080803573ffffffffffffffffffffffffffffffffffffffff169060200190929190803590602001909291905050506107fd565b005b34801561034957600080fd5b5061035261119e565b6040518082815260200191505060405180910390f35b34801561037457600080fd5b5061037d6111a4565b005b34801561038b57600080fd5b506103c0600480360381019080803573ffffffffffffffffffffffffffffffffffffffff16906020019092919050505061129e565b604051808215151515815260200191505060405180910390f35b3480156103e657600080fd5b506103ef611413565b604051808261ffff1661ffff16815260200191505060405180910390f35b34801561041957600080fd5b50610422611427565b604051808273ffffffffffffffffffffffffffffffffffffffff1673ffffffffffffffffffffffffffffffffffffffff16815260200191505060405180910390f35b34801561047057600080fd5b506104a5600480360381019080803573ffffffffffffffffffffffffffffffffffffffff16906020019092919050505061144d565b6040518082815260200191505060405180910390f35b3480156104c757600080fd5b506104d0611465565b604051808273ffffffffffffffffffffffffffffffffffffffff1673ffffffffffffffffffffffffffffffffffffffff16815260200191505060405180910390f35b34801561051e57600080fd5b506105676004803603810190808035906020019092919080359060200190929190803590602001909291908035906020019092919080351515906020019092919050505061148a565b005b34801561057557600080fd5b5061057e61156d565b6040518082815260200191505060405180910390f35b3480156105a057600080fd5b506105a9611573565b604051808260038111156105b957fe5b60ff16815260200191505060405180910390f35b3480156105d957600080fd5b506105e2611586565b604051808215151515815260200191505060405180910390f35b34801561060857600080fd5b50610611611599565b6040518082815260200191505060405180910390f35b34801561063357600080fd5b50610668600480360381019080803573ffffffffffffffffffffffffffffffffffffffff16906020019092919050505061159f565b604051808215151515815260200191505060405180910390f35b34801561068e57600080fd5b506106c3600480360381019080803573ffffffffffffffffffffffffffffffffffffffff169060200190929190505050611971565b6040518082815260200191505060405180910390f35b3480156106e557600080fd5b5061071a600480360381019080803573ffffffffffffffffffffffffffffffffffffffff169060200190929190505050611989565b604051808215151515815260200191505060405180910390f35b34801561074057600080fd5b506107496119a9565b6040518082815260200191505060405180910390f35b34801561076b57600080fd5b506107a0600480360381019080803573ffffffffffffffffffffffffffffffffffffffff1690602001909291905050506119af565b005b3480156107ae57600080fd5b506107e3600480360381019080803573ffffffffffffffffffffffffffffffffffffffff169060200190929190505050611b04565b604051808215151515815260200191505060405180910390f35b6000804260035411151561081057600080fd5b82600860008673ffffffffffffffffffffffffffffffffffffffff1673ffffffffffffffffffffffffffffffffffffffff1681526020019081526020016000205401915082600954019050816006541115151561086c57600080fd5b600554831015151561087d57600080fd5b600754811115151561088e57600080fd5b81600860008673ffffffffffffffffffffffffffffffffffffffff1673ffffffffffffffffffffffffffffffffffffffff16815260200190815260200160002081905550806009819055507f23009393721a27d6803b599bf9f0747edfd97c6fe82522bedeb95c05150c9b408484604051808373ffffffffffffffffffffffffffffffffffffffff1673ffffffffffffffffffffffffffffffffffffffff1681526020018281526020019250505060405180910390a150505050565b60065481565b6000806000804260035410151561096657600080fd5b8460008173ffffffffffffffffffffffffffffffffffffffff166370a08231306040518263ffffffff167c0100000000000000000000000000000000000000000000000000000000028152600401808273ffffffffffffffffffffffffffffffffffffffff1673ffffffffffffffffffffffffffffffffffffffff168152602001915050602060405180830381600087803b158015610a0457600080fd5b505af1158015610a18573d6000803e3d6000fd5b505050506040513d6020811015610a2e57600080fd5b8101908080519060200190929190505050111515610a4b57600080fd5b6000600860003373ffffffffffffffffffffffffffffffffffffffff1673ffffffffffffffffffffffffffffffffffffffff16815260200190815260200160002054111515610a9957600080fd5b60001515600a60009054906101000a900460ff1615151415610b0e57600b60008773ffffffffffffffffffffffffffffffffffffffff1673ffffffffffffffffffffffffffffffffffffffff16815260200190815260200160002060009054906101000a900460ff161515610b0d57600080fd5b5b600f60008773ffffffffffffffffffffffffffffffffffffffff1673ffffffffffffffffffffffffffffffffffffffff168152602001908152602001600020548673ffffffffffffffffffffffffffffffffffffffff166370a08231306040518263ffffffff167c0100000000000000000000000000000000000000000000000000000000028152600401808273ffffffffffffffffffffffffffffffffffffffff1673ffffffffffffffffffffffffffffffffffffffff168152602001915050602060405180830381600087803b158015610be957600080fd5b505af1158015610bfd573d6000803e3d6000fd5b505050506040513d6020811015610c1357600080fd5b8101908080519060200190929190505050019350600954600860003373ffffffffffffffffffffffffffffffffffffffff1673ffffffffffffffffffffffffffffffffffffffff16815260200190815260200160002054811515610c7357fe5b0484029250600d60003373ffffffffffffffffffffffffffffffffffffffff1673ffffffffffffffffffffffffffffffffffffffff16815260200190815260200160002060008773ffffffffffffffffffffffffffffffffffffffff1673ffffffffffffffffffffffffffffffffffffffff1681526020019081526020016000205483039150600082111515610d0857600080fd5b81600f60008873ffffffffffffffffffffffffffffffffffffffff1673ffffffffffffffffffffffffffffffffffffffff1681526020019081526020016000206000828254019250508190555081600d60003373ffffffffffffffffffffffffffffffffffffffff1673ffffffffffffffffffffffffffffffffffffffff16815260200190815260200160002060008873ffffffffffffffffffffffffffffffffffffffff1673ffffffffffffffffffffffffffffffffffffffff168152602001908152602001600020600082825401925050819055506003600060146101000a81548160ff02191690836003811115610dfe57fe5b02179055508573ffffffffffffffffffffffffffffffffffffffff166323b872dd3033856040518463ffffffff167c0100000000000000000000000000000000000000000000000000000000028152600401808473ffffffffffffffffffffffffffffffffffffffff1673ffffffffffffffffffffffffffffffffffffffff1681526020018373ffffffffffffffffffffffffffffffffffffffff1673ffffffffffffffffffffffffffffffffffffffff1681526020018281526020019350505050602060405180830381600087803b158015610eda57600080fd5b505af1158015610eee573d6000803e3d6000fd5b505050506040513d6020811015610f0457600080fd5b8101908080519060200190929190505050507f1ce4a6068a020847732bce06b833f1b0ef42e08611a45ca145fa2e5916f1db8a338784604051808473ffffffffffffffffffffffffffffffffffffffff1673ffffffffffffffffffffffffffffffffffffffff1681526020018373ffffffffffffffffffffffffffffffffffffffff1673ffffffffffffffffffffffffffffffffffffffff168152602001828152602001935050505060405180910390a16001945050505050919050565b60006003806003811115610fd257fe5b600060149054906101000a900460ff166003811115610fed57fe5b14151515610ffa57600080fd5b6000600860003373ffffffffffffffffffffffffffffffffffffffff1673ffffffffffffffffffffffffffffffffffffffff1681526020019081526020016000205411151561104857600080fd5b823073ffffffffffffffffffffffffffffffffffffffff16311015151561106e57600080fd5b82600860003373ffffffffffffffffffffffffffffffffffffffff1673ffffffffffffffffffffffffffffffffffffffff168152602001908152602001600020600082825403925050819055503373ffffffffffffffffffffffffffffffffffffffff166108fc849081150290604051600060405180830381858888f19350505050158015611101573d6000803e3d6000fd5b507f6202b9210eddfec514dee7725e74c49be931243a5fda51c01552a5fb07e893dd3384604051808373ffffffffffffffffffffffffffffffffffffffff1673ffffffffffffffffffffffffffffffffffffffff1681526020018281526020019250505060405180910390a150919050565b60095481565b600d602052816000526040600020602052806000526040600020600091509150505481565b60055481565b6000809054906101000a900473ffffffffffffffffffffffffffffffffffffffff1673ffffffffffffffffffffffffffffffffffffffff163373ffffffffffffffffffffffffffffffffffffffff161415156111ff57600080fd5b4260035411151561120f57600080fd5b600080600381111561121d57fe5b600060149054906101000a900460ff16600381111561123857fe5b14151561124457600080fd5b426003819055506001600060146101000a81548160ff0219169083600381111561126a57fe5b02179055507fc7fd8db71ff4df7d04073851d967c2fc797f4b5a885c27225e9cb304cde1b07d60405160405180910390a150565b60008060009054906101000a900473ffffffffffffffffffffffffffffffffffffffff1673ffffffffffffffffffffffffffffffffffffffff163373ffffffffffffffffffffffffffffffffffffffff161415156112fb57600080fd5b60001515600a60009054906101000a900460ff16151514151561131d57600080fd5b4260035410151561132d57600080fd5b60001515600a60009054906101000a900460ff16151514151561134f57600080fd5b6000600b60008473ffffffffffffffffffffffffffffffffffffffff1673ffffffffffffffffffffffffffffffffffffffff16815260200190815260200160002060006101000a81548160ff0219169083151502179055507fb2e351d7e80c490e5dc2564259242d931e555d50ebc07bfa81a4562cc1706c2582604051808273ffffffffffffffffffffffffffffffffffffffff1673ffffffffffffffffffffffffffffffffffffffff16815260200191505060405180910390a160019050919050565b600c60009054906101000a900461ffff1681565b600460009054906101000a900473ffffffffffffffffffffffffffffffffffffffff1681565b600f6020528060005260406000206000915090505481565b6000809054906101000a900473ffffffffffffffffffffffffffffffffffffffff1681565b4260035411151561149a57600080fd5b60008060038111156114a857fe5b600060149054906101000a900460ff1660038111156114c357fe5b1415156114cf57600080fd5b84600581905550836006819055508260078190555060018602420160038190555081600a60006101000a81548160ff0219169083151502179055507f0542933e23099aca99ccb380feb75e4d4e7c7abf91efbbf88b22f7c6b5e54d60868686868660405180868152602001858152602001848152602001838152602001821515151581526020019550505050505060405180910390a1505050505050565b60035481565b600060149054906101000a900460ff1681565b600a60009054906101000a900460ff1681565b60075481565b6000806000806000809054906101000a900473ffffffffffffffffffffffffffffffffffffffff1673ffffffffffffffffffffffffffffffffffffffff163373ffffffffffffffffffffffffffffffffffffffff1614151561160057600080fd5b4260035410151561161057600080fd5b60003073ffffffffffffffffffffffffffffffffffffffff163111151561163657600080fd5b600073ffffffffffffffffffffffffffffffffffffffff16600460009054906101000a900473ffffffffffffffffffffffffffffffffffffffff1673ffffffffffffffffffffffffffffffffffffffff161415156116eb578473ffffffffffffffffffffffffffffffffffffffff16600460009054906101000a900473ffffffffffffffffffffffffffffffffffffffff1673ffffffffffffffffffffffffffffffffffffffff161415156116ea57600080fd5b5b600260038111156116f857fe5b600060149054906101000a900460ff16600381111561171357fe5b141515611865576117306103e86005611d6190919063ffffffff16565b925061174783600954611d7790919063ffffffff16565b9150600160009054906101000a900473ffffffffffffffffffffffffffffffffffffffff1673ffffffffffffffffffffffffffffffffffffffff166108fc839081150290604051600060405180830381858888f193505050501580156117b1573d6000803e3d6000fd5b506000600c60009054906101000a900461ffff1661ffff161115611864576103e8600c60009054906101000a900461ffff1661ffff168115156117f057fe5b0461ffff166009540290506000809054906101000a900473ffffffffffffffffffffffffffffffffffffffff1673ffffffffffffffffffffffffffffffffffffffff166108fc829081150290604051600060405180830381858888f19350505050158015611862573d6000803e3d6000fd5b505b5b6002600060146101000a81548160ff0219169083600381111561188457fe5b02179055508473ffffffffffffffffffffffffffffffffffffffff166108fc3073ffffffffffffffffffffffffffffffffffffffff16319081150290604051600060405180830381858888f193505050501580156118e6573d6000803e3d6000fd5b507facfada45e09e5bb4c2c456febe99efe38be8bfc67a25cccdbb4c93ec56f661a5853073ffffffffffffffffffffffffffffffffffffffff1631604051808373ffffffffffffffffffffffffffffffffffffffff1673ffffffffffffffffffffffffffffffffffffffff1681526020018281526020019250505060405180910390a1505050919050565b60086020528060005260406000206000915090505481565b600b6020528060005260406000206000915054906101000a900460ff1681565b60025481565b6000809054906101000a900473ffffffffffffffffffffffffffffffffffffffff1673ffffffffffffffffffffffffffffffffffffffff163373ffffffffffffffffffffffffffffffffffffffff16141515611a0a57600080fd5b600073ffffffffffffffffffffffffffffffffffffffff168173ffffffffffffffffffffffffffffffffffffffff1614151515611a4657600080fd5b8073ffffffffffffffffffffffffffffffffffffffff166000809054906101000a900473ffffffffffffffffffffffffffffffffffffffff1673ffffffffffffffffffffffffffffffffffffffff167f8be0079c531659141344cd1fd0a4f28419497f9722a3daafe3b4186f6b6457e060405160405180910390a3806000806101000a81548173ffffffffffffffffffffffffffffffffffffffff021916908373ffffffffffffffffffffffffffffffffffffffff16021790555050565b60008060009054906101000a900473ffffffffffffffffffffffffffffffffffffffff1673ffffffffffffffffffffffffffffffffffffffff163373ffffffffffffffffffffffffffffffffffffffff16141515611b6157600080fd5b8160008173ffffffffffffffffffffffffffffffffffffffff166370a08231306040518263ffffffff167c0100000000000000000000000000000000000000000000000000000000028152600401808273ffffffffffffffffffffffffffffffffffffffff1673ffffffffffffffffffffffffffffffffffffffff168152602001915050602060405180830381600087803b158015611bff57600080fd5b505af1158015611c13573d6000803e3d6000fd5b505050506040513d6020811015611c2957600080fd5b8101908080519060200190929190505050111515611c4657600080fd5b60001515600a60009054906101000a900460ff161515141515611c6857600080fd5b42600354101515611c7857600080fd5b6003600060146101000a81548160ff02191690836003811115611c9757fe5b02179055506001600b60008573ffffffffffffffffffffffffffffffffffffffff1673ffffffffffffffffffffffffffffffffffffffff16815260200190815260200160002060006101000a81548160ff0219169083151502179055507fd578f84e7496243d3c9ef54305f65812ae30c4c5b66c630cb436ae1f719f3aeb83604051808273ffffffffffffffffffffffffffffffffffffffff1673ffffffffffffffffffffffffffffffffffffffff16815260200191505060405180910390a16001915050919050565b60008183811515611d6e57fe5b04905092915050565b600080831415611d8a5760009050611da9565b8183029050818382811515611d9b57fe5b04141515611da557fe5b8090505b929150505600a165627a7a72305820934b9358766c552fac1f1c864b83801a9815a77c23f26228f8898077e59f395b0029a165627a7a723058200eea903d420b0c939bea9eef3484500922b7bc58685ea3da90147701495ae4050029",
  "source": "pragma solidity ^0.4.17;\n\nimport 'openzeppelin-solidity/contracts/ownership/Ownable.sol';\nimport 'contracts/Pool.sol';\n\ncontract Pools is Ownable {\n\n  mapping (address => address[]) public owners;\n\n  event poolCreated(address indexed pool, address indexed owner);\n\n\tfunction Pools() public Ownable() {\n\n\t}\n\n\t// function deployPool() {\n\tfunction deployPool(uint256 _closeSeconds, uint256 _minPerUser, uint256 _maxPerUser, uint256 _maxPool, bool _autoClaim, address _dest, uint8 _ownerFeesPct) public returns (address) {\n\t\trequire(_ownerFeesPct <= 1000);\n\t\trequire(_closeSeconds > 0);\n  \trequire(_maxPool > 0);\n\t\t// address newPool = new Pool( 3600, 1, 10, 100, true, address(0), 5);\n\n\t\taddress newPool = new Pool( _closeSeconds, _minPerUser, _maxPerUser, _maxPool, _autoClaim, _dest, _ownerFeesPct);\n\t\towners[msg.sender].push(newPool);\n\t\temit poolCreated(newPool, msg.sender);\n\t\treturn newPool;\n\t}\n\n\tfunction getPools(address addr) public view returns(address[]) {\n\t\treturn owners[addr];\n\t}\n\n\t// Need to do a withdraw function. \n\t// Later on better to have a smart contract just for fees\n}",
  "sourcePath": "/Users/fjalcaraz/Desktop/SBC/project/pooled/express/contracts/Pools.sol",
  "compiler": {
    "name": "solc",
    "version": "0.4.23+commit.124ca40d.Emscripten.clang"
  },
  "schemaVersion": "2.0.0",
  "updatedAt": "2018-06-06T03:44:55.696Z"
}